:020000040800F2
:1000000038F800204501000895050008970500080C
:100010009B0500089F050008A305000800000000DC
:10002000000000000000000000000000A70500081C
:10003000A905000800000000AB05000865050008E0
:100040005F0100085F0100085F0100085F01000810
:100050005F0100085F0100085F0100085F01000800
:100060005F0100085F0100085F0100085F010008F0
:100070005F0100085F0100085F0100085F010008E0
:100080005F0100085F0100085F0100085F010008D0
:100090005F0100085F0100085F0100085F010008C0
:1000A0005F010008410700085F0100085F010008C8
:1000B0005F0100085F0100085F0100085F010008A0
:1000C0005F0100085F0100085F0100085F01000890
:1000D0005F010008A50400085F0100085F01000837
:1000E0005F0100085F0100085F0100085F01000870
:1000F0005F0100085F0100085F0100085F01000860
:100100005F0100085F010008930700085F01000815
:100110005F0100085F0100085F0100085F0100083F
:100120005F0100085F0100085F0100085F0100082F
:10013000DFF80CD005F082FA00480047C90100083A
:1001400038F800200648804706480047FEE7FEE7EB
:10015000FEE7FEE7FEE7FEE7FEE7FEE7FEE7FEE777
:10016000633E00083101000810B500F0ADF902F05F
:100170003DF800F00FFC04F073FC04F07EFC03F08B
:1001800004FF03F00EFF04F0E6FB472142F20F707C
:1001900000F07AFA472141F2873000F0A3FA00F02C
:1001A0007CF824A1284800F0FAF802F03FF802F0A9
:1001B00045F900F09DFE0121244803F005FB0121D3
:1001C000234803F001FB10BDFFF7CEFF31E02148CB
:1001D0000078012802D1204908702AE01F480078E1
:1001E000012803D102201C49087022E01C48007835
:1001F000012803D10320184908701AE01948007833
:10020000012803D104201449087012E01648007830
:10021000012803D10520104908700AE0134800782E
:10022000012803D106200C49087002E000200A4989
:100230000870CCE720CFB5CDB3C6F4B6AFB3C9B91B
:10024000A6210D0A0000000000380140000C00400B
:10025000002C0140110000200600002012000020A8
:1002600013000020140000201500002016000020BC
:1002700008B54FF4C06000F099F925208DF8000012
:1002800002208DF8010001208DF8020000208DF879
:100290000300684600F08FF908BD00B585B0012164
:1002A00044F2040002F0F8FBFFF7E2FF4FF40070A5
:1002B000ADF8100018208DF8130003208DF81200FF
:1002C00004A97F4802F02CF94FF48060ADF81000CB
:1002D00004208DF8130004A9794802F021F94FF4A5
:1002E000E13000900020ADF80400ADF80600ADF854
:1002F0000800ADF80C000C20ADF80A006946714802
:1003000002F071FC01216F4802F0F9FC002240F27A
:1003100025516C4802F0FFFC05B000BD70B50446E5
:100320000D46E1B2674802F057FD00BF4021654825
:1003300002F0C0FD0128F9D1204670BDF0B503469A
:100340000D461646002729460A2E03D000200870C5
:100350002846F0BD33B9302001F8010B00200870A9
:100360002846F6E7002B03DA2D2001F8010B5B424B
:1003700042F210720DE093FBF2F404B937B104F1CC
:10038000300001F8010B04FB123301270A2092FB15
:10039000F0F2002AEFDC002008702846D9E70FB4FD
:1003A00070B586B006460CA8019073E00B980078F3
:1003B0005C281CD10B98401C0B9000786E2809D04B
:1003C00072280FD10D21304602F006FD0B98401C1B
:1003D0000B900BE00A21304602F0FEFC0B98401C0B
:1003E0000B9003E00B98401C0B9000BF4BE00B9868
:1003F0000078252840D10B98401C0B900078642889
:1004000018D0732833D1019810C801900BE02178DF
:10041000304602F0E1FC00BF4021304602F04AFDC8
:100420000028F9D0641C20780028F0D10B98401CDB
:100430000B9020E0019820C801900A2202A92846CA
:10044000FFF77CFF02AC0BE02178304602F0C4FCE1
:1004500000BF4021304602F02DFD0028F9D0641C79
:1004600020780028F0D10B98401C0B9003E00B98EB
:10047000401C0B9000BF06E00B9810F8011B0B907E
:10048000304602F0A9FC00BF4021304602F012FDC8
:100490000028F9D00B980078002887D106B070BCEE
:1004A0005DF814FB10B540F22551064802F018FD26
:1004B000012804D140F22551024802F008FD10BD88
:1004C000000801400038014030B52D4800682D4A31
:1004D000B0FBF2F1B1F1807F01D301201DE021F0EA
:1004E0007F40401E4FF0E022506150170F2200283D
:1004F00007DA13071D0E244B00F00F04241F1D55AF
:1005000003E013071C0E214B1C5400BF00204FF0CA
:10051000E022906107201061002008B100BFFEE7D3
:100520004FF0E020006920F001004FF0E021086169
:1005300030BD174908604FF0E021096941F0010121
:100540004FF0E022116100BF114909680029FBD179
:10055000704700B503464FF47A7103FB01F0FFF7D3
:10056000E8FF00BD0A48006820B109480068401E45
:1005700007490860704700E0401E0028FCD1704722
:10058000EC00002040420F0018ED00E000E400E025
:1005900000000020704700BFFEE700BFFEE700BF7D
:1005A000FEE700BFFEE770477047704731490143DF
:1005B000314A1160704770B5002100230F22C478C2
:1005C00004B32D4C246804F4E064C4F5E064210A0B
:1005D000C1F10403CA40447804FA03F1847814405A
:1005E00021430901254C0678A155047804F01F0524
:1005F0000124AC4005786D11AD0005F1E025C5F88A
:10060000004109E0047804F01F050124AC401C4DB2
:100610000678761145F8264070BD1A4A0A40024312
:10062000154B1B1F1A60704739B1134A121D12680F
:100630000243114B1B1D1A6006E00F4A121D12687F
:1006400082430D4B1B1D1A607047042808D14FF0E0
:10065000E021096941F004014FF0E022116107E057
:100660004FF0E021096921F004014FF0E02211610F
:10067000704700000000FA050CED00E000E400E027
:1006800080E100E080FFFF1F7FB504460D46012199
:10069000C80202F001FAADF804500020ADF80600DF
:1006A000ADF80840ADF80A008DF80C0001A9A44887
:1006B00002F02EFD0121A24803F04CFB012211465D
:1006C0009F4803F09CF819208DF8000002208DF857
:1006D00001008DF8020001208DF803006846FFF745
:1006E0006AFF7FBD7FB504460D460121082002F058
:1006F000E0F9ADF804500020ADF80600ADF8084070
:10070000ADF80A008DF80C0001A98E4802F000FD3A
:1007100001218C4803F01EFB01221146894803F099
:100720006EF832208DF8000000208DF801008DF861
:10073000020001208DF803006846FFF73CFF7FBDF3
:100740002DE9FC4180480088401C7F49088008460C
:1007500000880A2190FBF1F201FB120098B97B4955
:10076000486804F064FD04460D467849086804F0C2
:100770005EFD064632460B4675A0CDE9004504F005
:100780007DFF00F017F901216D4803F0F7FABDE88D
:10079000FC812DE9F04F87B00024A146A246A34674
:1007A0000020069008206E4908600121654803F08A
:1007B000D4FA01287ED100BF48E000F0D2FC694A9B
:1007C0009168106804F002FB019004F030FDCDE95F
:1007D000020106F087F8644A644BCDE9040104F095
:1007E000DAFB0746624A634B04F0CFFB054604F090
:1007F00061FD81465B4A9168506804F0E7FA019018
:1008000004F015FD054606F06DF80746564A574BAD
:1008100004F0C1FB4FF03332574BCDE9020104F035
:10082000B4FBCDE9040104F045FD82464946534836
:10083000006804F041FA5149086051465048006888
:1008400004F03AFA4E490860601CC4B2032CB4DBD1
:100850004A48006804F0EBFC05460022494B04F0CE
:100860000CFC074604F026FD81464548006804F06C
:10087000DEFC05460022434B04F0FFFB074604F074
:1008800019FD824600203D4908603D490860354811
:100890000169484601F090F82C4908603148C06869
:1008A00080F000452946504601F0D6F927494860B6
:1008B000084600E03CE0006833494860234840684F
:1008C00032494860304A9168506804F047FA2E492E
:1008D00088620846406888602C4A9168506804F035
:1008E0003DFA2A49886208464068886028480078AE
:1008F000072817D2DFE800F01604070A0D101300CE
:1009000003F096FB0FE003F02FFC0CE003F0C8FCB3
:1009100009E003F0F3FD06E003F06AFE03E003F0F4
:1009200029FF00E000BF00BF0121064803F026FABE
:1009300008200B49091D086007B0BDE8F08F0000D2
:10094000002C0140000C0040040000203C0100206D
:100950002520322E3166202520322E31660D0A00E8
:10096000101801402401002012143FC6DCA54C40A1
:100970009A9999999999D93F3333D33F0800002028
:100980000C0000200000084068030020A80300209D
:100990000600002008B50121042002F07DF8F020B7
:1009A000ADF8000048208DF803006946FD4801F0CD
:1009B000B7FD08BD2DE9F0411021FA4801F043FED2
:1009C00000287CD1F8480078022806D003282ED0D1
:1009D000052856D0062873D180E0F448006804F05A
:1009E00026FC06460022F24B04F02EFA044604F0E0
:1009F00061FCEE4908600846006804F018FC0446F3
:100A00000022EC4B04F03EFC02D8EB48E7490860BA
:100A1000E648006804F00BFC044622460B46E7A1BA
:100A2000EF4804F03BFEEE4801F0F2FC81E0ED48B7
:100A3000006804F0FCFB06460022EB4B04F004FACD
:100A4000044604F037FCE74908600846006804F0F3
:100A5000EEFB04460022E54B04F014FC02D8E44807
:100A6000E0490860DF48006804F0E1FB04462246E4
:100A70000B46E0A1DA4804F011FED94801F0C8FCA9
:100A800057E0CA48006804F0D2FB06460022C84B73
:100A900004F0DAF9044604F00DFCC4490860084685
:100AA000006804F0C4FB04460022C24B04F0EAFBD9
:100AB00002D8C148BD490860BC48006801E039E07F
:100AC00036E004F0B4FB044622460B46D2A1C448EB
:100AD00004F0E4FDC24801F09BFC2AE0B348006842
:100AE00004F0A5FB06460022B14B04F0ADF9044624
:100AF00004F0E0FBAD4908600846006804F097FB8D
:100B000004460022AB4B04F0BDFB02D8AA48A7491B
:100B10000860A648006804F08AFB044622460B469B
:100B2000BDA1AF4804F0BAFDAD4801F071FC00E092
:100B300000BF00BF20219B4801F085FD00287CD12B
:100B400099480078022806D003282ED0052856D0D0
:100B5000062873D180E09548006804F068FB0646DB
:100B60000022934B04F011FA044604F0A3FB8F49D2
:100B700008600846006804F05AFB04460022AF4BA8
:100B800004F068FB02D8AE488849086087480068CE
:100B900004F04DFB044622460B4688A1904804F021
:100BA0007DFD8F4801F034FC81E08E48006804F040
:100BB0003EFB064600228C4B04F0E7F9044604F0A5
:100BC00079FB884908600846006804F030FB044659
:100BD0000022134604F03EFB02D800208149086041
:100BE0008048006804F023FB044622460B4681A19E
:100BF0007B4804F053FD7A4801F00AFC57E06B484B
:100C0000006804F014FB06460022694B04F0BDF9AD
:100C1000044604F04FFB654908600846006804F08C
:100C200006FB04460022854B04F014FB02D88448DE
:100C30005E4908605D48006801E039E036E004F094
:100C4000F6FA044622460B4673A1654804F026FDD9
:100C5000634801F0DDFB2AE05448006804F0E7FA3D
:100C600006460022524B04F090F9044604F022FBA1
:100C70004E4908600846006804F0D9FA044600228C
:100C80006E4B04F0E7FA02D86D48484908604748BF
:100C9000006804F0CCFA044622460B465EA1504898
:100CA00004F0FCFC4E4801F0B3FB00E000BF00BFC5
:100CB00040213C4801F0C7FC00285ED13A4800784A
:100CC000072858D2DFE800F057040F1A25304C00EF
:100CD00001205C4908705CA1414804F0DFFC4048F9
:100CE00001F096FB48E001205E49087056A13C489F
:100CF00004F0D4FC3A4801F08BFB3DE001205A4956
:100D0000087051A1364804F0C9FC354801F080FB59
:100D100032E00120554908704BA1314804F0BEFC77
:100D20002F4801F075FB27E0012051490870514818
:100D3000007808B9012000E000204E4908700846FC
:100D40000078012804D14CA1254804F0A7FC03E059
:100D500051A1234804F0A2FC214801F059FB0BE00B
:100D600001205549087038A11D4804F097FC1C4823
:100D700001F04EFB00E000BF00BF8021094801F0F8
:100D800062FC68B908480078401C074908700846AA
:100D90000078062801DD00200870034802788DE005
:100DA00093E0000000080140100000200001002036
:100DB000000014400080414000000C424453313692
:100DC00028362C36302C27C9E8D6C3B3A4B6C83A87
:100DD000252E316620272C3130290D0A0000000015
:100DE00068010020040100200000244000806640CB
:100DF000000034434453313628362C38302C27C970
:100E0000E8D6C3BDC7B6C83A252E316620272C3197
:100E100030290D0A000000004453313628362C31A9
:100E200030302C27C9E8D6C3B0EBBEB63A252E31F8
:100E30006620272C3130290D0A00000000002E40CA
:100E400000007041110000204453313628362C3107
:100E500032302C27BFAACABC21272C3130290D0AD9
:100E600000000000120000201300002014000020E9
:100E700015000020080100204453313628362C315B
:100E800032302C27CBB3CAB1D5EBD0FDD7AA21275E
:100E90002C3130290D0A00004453313628362C31CC
:100EA00032302C27C4E6CAB1D5EBD0FDD7AA212712
:100EB0002C3130290D0A00001600002004A10B4837
:100EC00004F0ECFB094801F0A3FABDE8F081000052
:100ED0004453313628362C34302C27B5DA2564CEED
:100EE000CA272C3130290D0A0000000068010020BB
:100EF00010B54023A84A8021104601F007F80022CF
:100F00006B21D02001F00DF907221921D02001F02A
:100F100008F905221A21D02001F003F900221B2133
:100F2000D02001F0FEF801221C21D02001F0F9F8B8
:100F300010BD2DE9F0410024002500263B21D020E2
:100F400001F001F905463C21D02001F0FCF80646ED
:100F500046EA052004B2204604F0FEF807464FF0AA
:100F60008D4103F033FFBDE8F0812DE9F04100240D
:100F7000002500263D21D02001F0E5F805463E2160
:100F8000D02001F0E0F8064646EA052004B22046EB
:100F900004F0E2F807464FF08D4103F017FFBDE87B
:100FA000F0812DE9F0410024002500263F21D020CA
:100FB00001F0C9F805464021D02001F0C4F80646EA
:100FC00046EA052004B2204604F0C6F807464FF072
:100FD0008D4103F0FBFEBDE8F0812DE9F0410024D6
:100FE000002500264321D02001F0ADF8054643211D
:100FF000D02001F0A8F8064646EA052004B22046B3
:1010000004F0AAF80746654903F0E0FEBDE8F08168
:101010002DE9F0410024002500264521D02001F0D3
:1010200092F805464521D02001F08DF8064646EAA3
:10103000052004B2204604F08FF80746574903F014
:10104000C5FEBDE8F0812DE9F04100240025002611
:101050004721D02001F077F805464721D02001F044
:1010600072F8064646EA052004B2204604F074F8F9
:1010700007464A4903F0AAFEBDE8F0812DE9FC5F6E
:101080004FF0000AFFF755FF8346FFF78AFF0190F4
:101090005846019903F09AFE009004F0C8F8804683
:1010A00005F020FC06463E4A3E4B03F074FF044622
:1010B00004F000F982465046BDE8FC9F2DE9FC5F34
:1010C0004FF0000AFFF76DFF8346FFF74EFF0190D8
:1010D0005946019803F07AFE009004F0A8F8804683
:1010E00005F000FC06462E4A2E4B03F054FF044642
:1010F00004F0E0F882465046BDE8FC9F2DE9FC5F15
:101100004FF0000AFFF74DFF8346FFF72EFF0190D7
:101110005946019803F05AFE009004F088F8804682
:1011200005F0E0FB06461E4A1E4B03F034FF044662
:1011300004F0C0F882465046BDE8FC9F70B500241C
:10114000002500264121D02000F0FDFF0546422168
:10115000D02000F0F8FF064646EA052004B22046FB
:1011600070BD10B5FFF7E5FE0F490860FFF7FDFE03
:101170000D494860FFF715FF0B498860FFF72DFF09
:101180000949C860FFF744FF07490861FFF75BFFA3
:101190000549486110BD0000000C014000000343F8
:1011A00012143FC6DCA54C40240100202DE9F04F6D
:1011B00087B004460D4628684FF0804103F006FED4
:1011C000804668684FF0804103F000FE8146A868C1
:1011D0004FF0804103F0FAFD8246404605F01CFFC7
:1011E0000690404605F00AFE0590484605F014FFBB
:1011F0000490484605F002FE0390504605F00CFFAF
:101200000290504605F0FAFD01900499029803F00F
:10121000ABFD8346069903F0A7FD064603990198A6
:1012200003F0A2FD8346059903F09EFD0746314673
:1012300003F042FD20600499029803F095FD834677
:10124000059903F091FD06460399019803F08CFD82
:101250008346069903F088FD0746314603F07EFD7C
:101260006060DDE9020103F07FFD8346069903F02B
:101270007BFD06460499019803F076FD83460599A7
:1012800003F072FD0746314603F016FDA060049995
:10129000019803F069FD8346069903F065FD064653
:1012A000DDE9020103F060FD8346059903F05CFD72
:1012B0000746314603F052FDE06007B0BDE8F08F0D
:1012C0002DE9F04F85B004460D46E168E06803F073
:1012D0004BFD0390A168A06803F046FD0290616891
:1012E000606803F041FD01902168206803F03CFD37
:1012F0000090019903F0E0FC8346029903F02EFD73
:101300008246039903F02AFD0646A168606803F04F
:101310002BFD8346E168206803F026FD59460390C3
:1013200003F0CAFC82464FF0804103F01DFD0746E2
:10133000A168206803F018FD8346E168606803F047
:1013400013FD5946039003F009FD82464FF080419A
:1013500003F00AFD8046E168A06803F005FD8346BE
:101360006168206803F000FD5946039003F0A4FC77
:1013700082464FF0804103F0F7FC8146E168E06867
:1013800003F0F2FC0390A168A06803F0EDFC02906A
:101390006168606803F0E8FC01902168206803F050
:1013A000E3FC0090019903F0D9FC8346029903F015
:1013B000D5FC8246039903F07FFC0490404605F07B
:1013C000FFF980F0004028604846049905F09AFB38
:1013D00068603146384605F095FBA86005B0BDE869
:1013E000F08F2DE9FC5F04460025E168E06803F01A
:1013F000BBFC0190A168A06803F0B6FC824661685E
:10140000606803F0B1FC00902168206803F0ACFC38
:101410008346009903F050FC8146514603F04CFC92
:101420008046019903F048FC074605F0B9FE0646E0
:1014300031464FF07E5003F0C9FC0546206829462E
:1014400003F092FC20606068294603F08DFC606028
:10145000A068294603F088FCA060E068294603F0F4
:1014600083FCE060BDE8FC9F0FB42DE9FF47044614
:101470001499109803F078FC074613990F9803F01D
:1014800073FC804612990E9803F06EFC8146119908
:101490000D9803F069FC8246494603F05FFC06465E
:1014A000414603F05BFC0546394603F057FC0090CB
:1014B0001399109803F058FC074614990F9803F0FD
:1014C00053FC804611990E9803F04EFC8146129908
:1014D0000D9803F049FC8246494603F0EDFB0646B1
:1014E000414603F0E9FB0546394603F037FC01901D
:1014F0001299109803F038FC074611990F9803F0E1
:1015000033FC804614990E9803F02EFC8146139903
:101510000D9803F029FC8246494603F01FFC06465D
:10152000414603F0C9FB0546394603F0C5FB02906E
:101530001199109803F018FC074612990F9803F0C0
:1015400013FC804613990E9803F00EFC8146149903
:101550000D9803F009FC8246494603F0ADFB0646B0
:10156000414603F0FBFB0546394603F0A5FB03901B
:101570006846FFF736FF0098206001986060029887
:10158000A0600398E060BDE8FF075DF814FB2DE95B
:10159000FF4F83B0044615461E46E068314603F00F
:1015A000E3FB0290A068294603F0DEFB019060682F
:1015B00080F0004B5846049903F0D6FB824601990F
:1015C00003F0CCFB8146029903F0C8FB80461099DA
:1015D00003F0CAFB0746216803F06EFB2060A06899
:1015E000314603F0C1FB0290E068294603F0BCFBE2
:1015F00082462068049903F0B7FB8346514603F006
:10160000ADFB8146029903F057FB8046109903F029
:10161000ABFB0746616803F04FFB606060683146D2
:1016200003F0A2FB02902068294603F09DFB82464E
:10163000E068049903F098FB8346514603F03CFBB5
:101640008146029903F08AFB0746109903F08CFB50
:101650008046A16803F030FBA0602068314603F0AB
:1016600083FB02906068294603F07EFB0190A0682E
:1016700080F0004B5846049903F076FB82460199AE
:1016800003F01AFB8146029903F016FB804610997D
:1016900003F06AFB0746E16803F00EFBE06007B069
:1016A000BDE8F08F4FF07E520260002242608260FF
:1016B000C2600A604A608A6070472DE9F04F8FB0BF
:1016C000FE4A9168106803F04FFB8246FB4AD168DE
:1016D000506803F049FB8346514603F03FFB8146C7
:1016E0004FF0804103F040FB0690F44AD1689068C7
:1016F00003F03AFB8246F14A5168106803F034FB6C
:101700008346514603F0D8FA81464FF0804103F0FA
:101710002BFB0590E94AD168D06803F025FBE74A26
:1017200003909168906803F01FFBE44A02905168AF
:10173000506803F019FB8346E04A1168106803F013
:1017400013FB5946019003F009FB8246029903F00E
:1017500005FB8146039903F0AFFA0490D84A9168DB
:10176000906803F001FBD64A03905168506803F07B
:10177000FBFAD34A02901168106803F0F5FA019061
:10178000029903F099FA8346039903F095FA824689
:1017900005F006FD814649464FF07E5003F016FBEA
:1017A0000E90C74908680E9903F0DEFA0A90C44902
:1017B00048680E9903F0D8FA0990C14988680E99D3
:1017C00003F0D2FA089006980D9005980C900498B2
:1017D0000B900C99089803F0C7FA81460B99099869
:1017E00003F0C2FA8246494603F0B8FA0546DDE93D
:1017F0000A0103F0B9FA81460D99089803F0B4FA8A
:101800008246494603F0AAFA06460D99099803F064
:10181000ABFA81460C990A9803F0A6FA824649462B
:1018200003F09CFA0746A749284603F09DFA814633
:10183000A5480168484603F03FFAA3490860A1495A
:10184000304603F091FA8146A0480168484603F00B
:1018500033FA9E4908609B49384603F085FA814671
:101860009B480168484603F027FA99490860944963
:10187000C868984903F078FA079091490869954932
:1018800003F072FA80468E494869924903F06CFA77
:1018900004462946904803F067FA8246079903F008
:1018A0000BFA814688480168484603F005FA07901C
:1018B0003146894803F058FA8246414603F0FCF964
:1018C000814682480168484603F0F6F98046394669
:1018D000814803F049FA8246214603F0EDF981463A
:1018E0007B480168484603F0E7F904467B482346F5
:1018F0004246009071480799FFF749FE6F48FFF78D
:1019000070FD77496D48FFF7DBFC7549086875493C
:1019100003F02AFA724908604868724903F024FA11
:101920006F49486088686F4903F01EFA81466E4926
:1019300003F0C2F96A4988606C49204603F014FA42
:1019400081466B480168484603F0B6F9684908606B
:1019500063488168674803F007FA81466448016874
:10196000654803F001FA8246494603F0A5F960494B
:10197000086062495E48006803F0C2FC07D25F4914
:101980005B48006803F0EAF95549886011E00021DE
:101990005748006803F0AAFC07D258495448006829
:1019A00003F08AF94E49886003E0514800684C49C9
:1019B00088600FB0BDE8F08F2DE9F04105460C4678
:1019C0004F480168204603F0C9F907464D480168B1
:1019D000384603F0C9F906464B480168304603F023
:1019E0006BF94949086008460168284603F0B6F9D2
:1019F00046490860464841684648006803F0AEF929
:101A0000064643488168304603F0A8F94249086019
:101A10003F48C06880F0004048603D48C06880F0A2
:101A2000004088603D480068C8600868354909681A
:101A300003F09AF9064636480168304603F03CF94F
:101A400033490860344948682E49096803F08CF925
:101A500006462F484168304603F02EF92C4948606D
:101A60002D4988682749096803F07EF90646284809
:101A70008168304603F020F9254988602649C86806
:101A80002049096803F070F906462148C1683046CC
:101A900003F012F91E49C8602148007803F065FB85
:101AA00006461B480168304603F05EF91D49086090
:101AB0001B48007803F059FB064635E0180000206B
:101AC000240100200AD7A33C2C0000203000002075
:101AD0003400002035FA8E3C000070410AD7233BC9
:101AE0003C010020E12E6542000034430AD7A33BAD
:101AF00028000020CDCCCC3D6666663F0000B44394
:101B000040000020540000203C0000204400002041
:101B10007800002048000020480100204C000020F0
:101B2000580000205C000020D8488168304603F04F
:101B30001BF9D7490860D748007803F016FB074621
:101B4000D5480168384603F00FF90646D3480168C6
:101B5000304603F0B1F8D249086008460168CE4823
:101B6000006803F033F9CF490860CD480168C848E0
:101B7000006803F02BF9CC490860C7480068CB49DE
:101B80000860C448007803F0F0FA0646BF48416890
:101B9000304603F0E9F8C6490860C4480168C14806
:101BA000006803F0E1F80646B8480168304603F0E3
:101BB000D8F8B6490860BE480168BA48006803F022
:101BC000D3F80646B1484168304603F0CAF8AF4939
:101BD0004860B6480168B448006803F0C5F8064696
:101BE000AA488168304603F0BCF8A8498860B0482C
:101BF0000168AD48006803F0B7F80646A348C1681D
:101C0000304603F0AEF8A149C860AA480168A5486B
:101C1000006803F0A9F80646A7480168304603F0BB
:101C20004BF8A5490860A34801689F48006803F085
:101C30009BF80646A1480168304603F03DF89F49ED
:101C4000086008460168204603F088F89C4908604F
:101C500099480068BDE8F0812DE9F04105460C4641
:101C600098480168204603F079F8074696480168CD
:101C7000384603F079F8064694480168304603F088
:101C80001BF89249086008460168284603F066F888
:101C90008F4908608F4841688F48006803F05EF8FC
:101CA00006468C488168304603F058F88B49086036
:101CB0008848C06880F0004048608648C06880F06E
:101CC0000040886086480068C86008687E490968E6
:101CD00003F04AF806467F480168304602F0ECFF00
:101CE0007C4908607D4948687749096803F03CF8F9
:101CF000064678484168304602F0DEFF7549486084
:101D0000764988687049096803F02EF806467148DC
:101D10008168304602F0D0FF6E4988606F49C8681C
:101D20006949096803F020F806466A48C1683046E8
:101D300002F0C2FF6749C8606A48007803F015FAEC
:101D4000064664480168304603F00EF866490860AC
:101D50006448007803F009FA06465E488168304618
:101D600003F002F8614908605E48007803F0FDF96D
:101D700007465D480168384602F0F6FF06465C48B3
:101D80000168304602F098FF5A4908600846016829
:101D90005548006803F01AF857490860554801682B
:101DA0005248006803F012F8544908604E48006831
:101DB000534908604B48007803F0D7F90646454878
:101DC0004168304602F0D0FF4E4908604C48016837
:101DD0004948006802F0C8FF06463E4801683046A0
:101DE00002F0BFFF3B49086046480168424800686E
:101DF00002F0BAFF064637484168304602F0B1FFAC
:101E0000344948603E4801683C48006802F0ACFF35
:101E1000064630488168304602F0A3FF2D498860AD
:101E2000384801683548006802F09EFF0646294898
:101E3000C168304602F095FF2649C8602448016811
:101E40002D48006802F090FF0646204801683046A1
:101E500002F032FF1D4908601D48016827480068EC
:101E600002F082FF064617480168304602F024FF60
:101E70001449086008460168204602F06FFF2249B5
:101E8000086012480068BDE8F0810000780000207A
:101E900060000020580000205C000020500000205E
:101EA00064000020680000206C000020700000200A
:101EB00074000020440000203C000020400000206E
:101EC0003800002090000020A40000208C0000209A
:101ED00094000020C8000020980000205801002035
:101EE0009C000020A8000020AC000020B0000020D2
:101EF000A0000020B4000020B8000020BC0000209A
:101F0000C0000020C400002088000020F8B504466E
:101F10000D4616461F460121082000F0BDFD802019
:101F2000ADF8000014208DF8030003208DF80200A6
:101F30006946A74800F0F4FA4020ADF800001020F0
:101F40008DF8030003208DF802006946A04800F0D8
:101F5000E7FA80219E4800F090FB40219C4800F069
:101F60008CFBF8BD002000BF011EA0F10102D0B221
:101F7000FAD1704710B58021954800F07EFBFFF73D
:101F8000F1FF4021924800F078FBFFF7EBFF90480B
:101F90000830006800F0800008B9012010BD8021E1
:101FA0008B4800F06CFBFFF7DDFF4021884800F014
:101FB00066FBFFF7D7FF86480830006800F0800016
:101FC000012801D10220E9E70020E7E710B58021D0
:101FD0007F4800F054FBFFF7C5FF40217C4800F02C
:101FE0004CFBFFF7BFFF8021794800F046FBFFF76D
:101FF000B9FF10BD10B58021754800F040FBFFF718
:10200000B1FF4021724800F038FBFFF7ABFF4021E1
:102010006F4800F034FBFFF7A5FF10BD10B580211D
:102020006B4800F02AFBFFF79DFF4021684800F055
:1020300024FBFFF797FF4021654800F020FBFFF7E6
:1020400091FF10BD70B504464021614800F017FBB8
:1020500000251DE004F0800020B180215C4800F0E4
:102060000CFB03E080215A4800F009FB6006040ED7
:10207000FFF778FF4021564800F0FFFAFFF772FFA4
:102080004021534800F0FBFAFFF76CFF681CC5B213
:10209000082DDFDB80214E4800F0EFFAFFF762FFEA
:1020A00040214B4800F0E9FAFFF75CFF4848083050
:1020B000006800F0800028B14021454800F0DFFAB8
:1020C000002070BD4021424800F0D9FA0120F8E715
:1020D00070B5002480213E4800F0CFFA40213C48F2
:1020E00000F0CDFA00BF002517E04021384800F08D
:1020F000C4FAFFF737FF6006040E35480830006861
:1021000000F0800008B144F001044021304800F0A4
:10211000B6FAFFF727FF681CC5B2082DE5DB20469D
:1021200070BD70B506460C461546FFF723FF3046D6
:10213000FFF788FF2046FFF785FF2846FFF782FF5D
:10214000FFF744FF70BD70B504460D46FFF712FF60
:102150002046FFF777FF2846FFF774FFFFF70AFFD7
:10216000611CC8B2FFF76EFFFFF7B2FF0646FFF72C
:1021700055FFFFF72BFF304670BD01460022154882
:10218000814201D1042221E01248814201D104227E
:102190001CE00F48814201D1082217E00E4881421D
:1021A00001D1102212E00D48814201D120220DE020
:1021B0000B48814201D1402208E00A48814201D106
:1021C000802203E00848814200D1821590B2704716
:1021D000000C0140000801400010014000140140C3
:1021E00000180140001C01400020014008B50121F9
:1021F000402000F051FC4FF46270ADF80000102058
:102200008DF8030003208DF802006946064800F0AF
:1022100087F94FF48070044910310860400008606D
:102220008020086008BD00000018014000B585B09E
:102230000121480400F03DFC0121212000F02CFC8C
:102240000121082000F03DFA2020ADF810001820F0
:102250008DF8130003208DF8120004A97C4800F0CB
:102260005FF90820ADF8100004208DF8130004A9D0
:10227000774800F055F94FF4E13000900020ADF8B8
:102280000400ADF80600ADF80800ADF80C000C2015
:10229000ADF80A0069466F4800F0A5FC01216D48C1
:1022A00000F02DFD05B000BDF0B503460D46164605
:1022B000002729460A2E03D0002008702846F0BDCA
:1022C00033B9302001F8010B002008702846F6E7EA
:1022D000002B03DA2D2001F8010B5B4242F2107251
:1022E0000DE093FBF2F404B937B104F1300001F8CA
:1022F000010B04FB123301270A2092FBF0F2002AA3
:10230000EFDC002008702846D9E70FB470B586B01E
:1023100006460CA8019073E00B9800785C281CD14D
:102320000B98401C0B9000786E2809D072280FD1B2
:102330000D21304600F050FD0B98401C0B900BE037
:102340000A21304600F048FD0B98401C0B9003E03A
:102350000B98401C0B9000BF4BE00B980078252891
:1023600040D10B98401C0B900078642818D073283B
:1023700033D1019810C801900BE02178304600F06D
:102380002BFD00BF4021304600F094FD0028F9D01D
:10239000641C20780028F0D10B98401C0B9020E0A2
:1023A000019820C801900A2202A92846FFF77CFF65
:1023B00002AC0BE02178304600F00EFD00BF40215A
:1023C000304600F077FD0028F9D0641C2078002802
:1023D000F0D10B98401C0B9003E00B98401C0B9025
:1023E00000BF06E00B9810F8011B0B90304600F080
:1023F000F3FC00BF4021304600F05CFD0028F9D01E
:102400000B980078002887D106B070BC5DF814FBEB
:1024100070B50446002510E0605D68B1615D0D484F
:1024200000F0DAFC00BF80210A4800F043FD0028DC
:10243000F9D0681CC5B200E070BDEDE710B50649E3
:10244000064803F02BF90548FFF7E2FF10BD000036
:102450000014014000440040F073000868010020AF
:1024600010B50446CC48844208D10121042000F074
:102470002DFB0021042000F029FB46E0C7488442E0
:1024800008D10121082000F021FB0021082000F0E4
:102490001DFB3AE0C248844208D10121102000F01F
:1024A00015FB0021102000F011FB2EE0BD488442F6
:1024B00008D10121202000F009FB0021202000F09C
:1024C00005FB22E0B848844208D10121402000F0F9
:1024D000FDFA0021402000F0F9FA16E0B3488442EA
:1024E00008D10121802000F0F1FA0021802000F0C5
:1024F000EDFA0AE0AE48844207D10121801500F0D0
:10250000E5FA0021A01500F0E1FA10BD10B5012197
:10251000084600F0DBFA0021012000F0D7FA10BDD8
:102520002DE9F0410246002500260020002300246A
:10253000002791F803C00CF00F0591F803C00CF0D0
:10254000100CBCF1000F03D091F802C04CEA050555
:1025500091F800C0BCF1000F31D0146800202BE0CE
:102560004FF0010C0CFA00F3B1F800C00CEA0306BE
:102570009E4220D183004FF00F0C0CFA03F7BC43AE
:1025800005FA03FC4CEA040491F803C0BCF1280FDF
:1025900006D14FF0010C0CFA00FCC2F814C00AE09E
:1025A00091F803C0BCF1480F05D14FF0010C0CFAB3
:1025B00000FCC2F810C0401C0828D1D31460B1F848
:1025C00000C0BCF1FF0F34DD546800202EE000F1A4
:1025D000080C4FF0010808FA0CF3B1F800C00CEA3F
:1025E00003069E4221D183004FF00F0C0CFA03F733
:1025F000BC4305FA03FC4CEA040491F803C0BCF1A7
:10260000280F05D100F1080C08FA0CF8C2F8148064
:1026100091F803C0BCF1480F07D100F1080C4FF04E
:10262000010808FA0CF8C2F81080401C0828CED324
:102630005460BDE8F0814FF6FF7101800221817086
:102640000421C17070470246002093680B400BB113
:10265000012000E0002070470146886880B2704782
:1026600002460020D3680B400BB1012000E000209F
:1026700070470146C86880B2704701617047416188
:1026800070470AB1016100E041617047C160704765
:102690004FF480320A43826181618261826982697A
:1026A000704702460020434B18684FF6807318406D
:1026B00040EA021008433F4B186070473E49C8612A
:1026C0007047F0B50A46002300240021002500F0E1
:1026D0000046B6F1004F02D1364EF16901E0354EA9
:1026E0007168C0F3034583B200F44016B6F5401F8D
:1026F00008D121F070612F4E766826F070662D4F5C
:102700007E6012E000F48016B6F5801F06D1032625
:1027100006FA05F4A14341F0706106E0460D36016A
:1027200003FA06F6B14341F0706122B1460D36015D
:1027300003FA06F6314300F00046B6F1004F02D12D
:102740001C4EF16101E01B4E7160F0BD30B50022FE
:102750008B071C0F0F2303FA04F2164B08338C105F
:1027600053F824309343134C08348D1044F825302B
:1027700023468C1053F824308C07240F00FA04F4FD
:1027800023430C4C08348D1044F8253030BD0A49E1
:10279000DC3108607047000000080140000C014077
:1027A000001001400014014000180140001C0140CD
:1027B000002001400000014000002042DF48006886
:1027C00040F00100DD49086008464068DC490840E7
:1027D000DA49486008460068DA490840D749086085
:1027E0000846006820F4802008600846406820F40D
:1027F000FE0048604FF41F0088607047CF490968A9
:1028000021F48031CD4A11601146096821F48021FC
:102810001160B0F5803F03D0B0F5802F0ED106E0F7
:10282000C649096841F48031C44A116007E0C349D0
:10283000096841F4A021C14A116000E000BF00BF57
:10284000704710B501460022002300204A11012ADA
:1028500002D1BA4C236806E0022A02D1B74C236A9F
:1028600001E0B64C636A01F01F02012494401C4051
:102870000CB1012000E0002010BD38B50020009010
:102880000024002500BF3120FFF7DBFF054600983C
:10289000401C00900098B0F5A06F01D0002DF2D040
:1028A0003120FFF7CEFF08B1012400E000242046CC
:1028B00038BD01460020A14A106820F0F80040EA27
:1028C000C10010607047A0490860704702460020B0
:1028D0009A4B586820F47C1042EA01031843974B46
:1028E0005860704798490866704701460020934A2F
:1028F000506820F003000843506070478F484068DC
:1029000000F00C007047014600208C4A506820F00F
:10291000F00008435060704701460020874A506825
:1029200020F4E06008435060704701460020834A6D
:10293000506820F4605040EAC1005060704729B1EF
:102940007E4A527A02437D4B5A7204E07B4A527AA5
:1029500082437A4B5A7270477B49D831086070477E
:1029600001460020754A506820F4404008435060FA
:1029700070470021714A20321170704A82F820108D
:10298000012802D004280AD104E001216B4A203238
:10299000117005E00521694A2032117000E000BF86
:1029A00000BF70476949086070476449096A01437C
:1029B000624A11627047654944390860704730B512
:1029C00000210022002400235C4D6D6805F00C01FD
:1029D00021B1042905D0082923D105E05C4D05600B
:1029E00022E05B4D05601FE0544D6D6805F47012E8
:1029F000524D6D6805F48034022505EB92421CB9F6
:102A0000544D554305600BE04C4D6D6805F40035A1
:102A10001DB1504D5543056002E04D4D55430560D5
:102A200002E04B4D056000BF00BF444D6D6805F0EE
:102A3000F0010909484D6B5C0568DD4045603F4D7C
:102A40006D6805F4E061090A434D6B5C4568DD4043
:102A500085603A4D6D6805F46051C90A3E4D6B5C66
:102A60004568DD40C560354D6D6805F44041890B12
:102A70003A4D6B5CC568B5FBF3F5056130BD29B116
:102A80002E4A526902432D4B5A6104E02B4A526987
:102A900082432A4B5A61704729B1284A92690243FE
:102AA000264B9A6104E0254A92698243234B9A613E
:102AB000704729B1214AD2690243204BDA6104E010
:102AC0001E4AD26982431D4BDA61704729B11B4A05
:102AD000D2680243194BDA6004E0184AD268824394
:102AE000164BDA60704729B1144A12690243134B3E
:102AF0001A6104E0114A12698243104B1A6170474F
:102B000012494039086070470F49C86470470B4943
:102B1000C87170470948406A40F0807007494862B0
:102B2000704701460020054A92680A400AB1012018
:102B300000E0002070470149887270470010024091
:102B40000000FFF8FFFFF6FE000042428004424210
:102B500000127A0000093D00D8000020E8000020A3
:102B600010B50446FB48844209D101218803FFF7D0
:102B7000ADFF00214FF48040FFF7A8FF32E0F64898
:102B8000844209D101214804FFF7ADFF00214FF431
:102B90000030FFF7A8FF25E0F048844209D1012169
:102BA0008804FFF7A0FF00214FF48020FFF79BFF70
:102BB00018E0EB48844209D10121C804FFF793FFD4
:102BC00000214FF40020FFF78EFF0BE0E548844220
:102BD00008D101210805FFF786FF00214FF480107E
:102BE000FFF781FF10BD2DE9F04786B005460E4680
:102BF0000024A24600BFA1460027B08900B100BF53
:102C00002F462C8A4CF6FF700440F08804432C8237
:102C1000AC894EF6F3100440B088318908437189BD
:102C200008430443AC81AC8A4FF6FF400440B089AE
:102C30000443AC8201A8FFF7C2FEC648874202D116
:102C4000DDF810A001E0DDF80CA0A88900F4004038
:102C500040B10AEBCA0000EB0A1031684900B0FB32
:102C6000F1F807E00AEBCA0000EB0A1031688900AE
:102C7000B0FBF1F86420B8FBF0F0040120096421F6
:102C800001FB1089A88900F4004040B1322000EB1C
:102C9000C900B0FBF1F000F00700044308E0322067
:102CA00000EB09106421B0FBF1F000F00F000443C9
:102CB0002C8106B0BDE8F0874FF416510160002169
:102CC0008180C18001810C21418100218181704777
:102CD00010B502460020108A4FF2FF0318400B88FF
:102CE0004C8823438C882343CC8823431843108289
:102CF00010BD0021018041808180C180704721B1D9
:102D0000828942F40052828104E082894DF6FF7389
:102D10001A4082817047F0B5034600240026002542
:102D2000002040F66A17B94200D100BF1846C1F32F
:102D3000421401F01F06012707FA06F5012C01D104
:102D40000C3004E0022C01D1103000E014301AB134
:102D500007682F43076002E00768AF430760F0BDD4
:102D60001AB1838A0B43838202E0838A8B43838276
:102D70007047028A4FF6F0731A400282028A0A43B1
:102D80000282704782894FF2FF731A4082818289E2
:102D90000A438281704721B1828942F00202828116
:102DA00004E082894FF6FD731A4082817047028ADF
:102DB0004FF6DF731A400282028A0A43028270478A
:102DC00021B1028A42F48042028204E0028A4BF678
:102DD000FF731A4002827047C1F308028280704775
:102DE00001468888C0F308007047818941F00101DD
:102DF00081817047028BD2B20283028B42EA0122A8
:102E000002837047028B02F47F420283028B0A43E3
:102E10000283704721B1828A42F02002828204E05C
:102E2000828A4FF6DF731A408282704721B1828A0C
:102E300042F01002828204E0828A4FF6EF731A4059
:102E40008282704721B1828A42F00802828204E0C5
:102E5000828A4FF6F7731A408282704721B18289C5
:102E600042F40042828103E08289C2F30E02828131
:102E7000704721B1828A42F40062828204E0828A31
:102E80004FF2FF731A4082827047828A4FF6FB73BB
:102E90001A408282828A0A438282704721B1828AE2
:102EA00042F00202828204E0828A4FF6FD731A40E9
:102EB0008282704702460020B1F5007F00D100BF3A
:102EC00013880B400BB1012000E00020704701F493
:102ED0000072B2F5007F00D100BFCA430280704784
:102EE00070B50246002400230025002040F66A1633
:102EF000B14200D100BFC1F3421501F01F0301260A
:102F000006FA03F3012D02D19689334006E0022D23
:102F100002D1168A334001E0968A33400C12012612
:102F200006FA04F41688344013B10CB1012000E015
:102F3000002070BD10B50022002340F66A14A142A3
:102F400000D100BF0A1201249440A3B2DC430480E4
:102F500010BD00000038014000440040004800401F
:102F6000004C00400050004010B50446FE4884422A
:102F700008D10121C014FFF7A9FD0021E014FFF7DB
:102F8000A5FDC4E0B4F1804F08D101210846FFF748
:102F9000AAFD00210120FFF7A6FDB8E0F348844216
:102FA00008D101210220FFF79EFD00210220FFF73A
:102FB0009AFDACE0EE48844208D101210420FFF7DD
:102FC00092FD00210420FFF78EFDA0E0E948844235
:102FD00008D101210820FFF786FD00210820FFF716
:102FE00082FD94E0E448844208D101211020FFF7DB
:102FF0007AFD00211020FFF776FD88E0DF4884424B
:1030000008D101212020FFF76EFD00212020FFF7CD
:103010006AFD7CE0DA48844208D101214014FFF7C0
:1030200055FD00216014FFF751FD70E0D548844242
:1030300009D10121C804FFF749FD00214FF4002008
:10304000FFF744FD63E0D048844209D1012108051F
:10305000FFF73CFD00214FF48010FFF737FD56E0ED
:10306000CA48844209D101214805FFF72FFD0021FC
:103070004FF40010FFF72AFD49E0C548844208D10B
:1030800001214020FFF72FFD00214020FFF72BFDFD
:103090003DE0C048844208D101218020FFF723FD94
:1030A00000218020FFF71FFD31E0BB48844208D19A
:1030B00001218015FFF717FD0021A015FFF713FD73
:1030C00025E0B648844209D101210804FFF7FEFC3F
:1030D00000214FF48030FFF7F9FC18E0B04884423B
:1030E00009D101214804FFF7F1FC00214FF4003021
:1030F000FFF7ECFC0BE0AB48844208D101218804C7
:10310000FFF7E4FC00214FF48020FFF7DFFC10BD47
:1031100000220288944B98420ED0994B98420BD0D3
:10312000B0F1804F08D0914B984205D0904B984217
:1031300002D0904B984204D14FF68F731A404B88BF
:103140001A438D4B984207D08C4B984204D04FF6CF
:10315000FF431A40CB881A4302808B8883850B88F3
:103160000385814B98420BD0854B984208D08B4BFE
:10317000984205D08A4B984202D08A4B984201D19E
:103180000B7A038601238382704770B500240022E6
:103190000023058C4FF6FE7635400584028C83882B
:1031A000048B4FF68F752C40B51E2C400D882C4398
:1031B000751E2A400D892A434D882A436A4DA8422C
:1031C0000BD06F4DA84208D0744DA84205D0744D65
:1031D000A84202D0734DA84213D14FF6F7752A408A
:1031E0004D892A434FF6FB752A408D882A434FF6B6
:1031F000FF652B404FF6FF552B408D892B43CD8922
:103200002B4383800483CD888586028470BD70B58E
:10321000002400220023058C4FF6EF76354005840C
:10322000028C8388048B48F6FF752C404FF6FF45CF
:103230002C400D884FF6FF7606EA05252C434FF605
:10324000DF752A400D8906EA05152A434D8806EAEE
:1032500005152A43444DA84202D0494DA8421DD12C
:103260004FF67F752A404D894FF6FF7606EA051521
:103270002A434FF6BF752A408D8806EA05152A4372
:103280004FF6FF352B404FF2FF752B408D8906EA34
:1032900085052B43CD8906EA85052B43838004836E
:1032A000CD880587028470BD70B5002400220023FC
:1032B000058C4FF6FF6635400584028C8388848B2D
:1032C0004FF68F752C404FF6FC752C400D882C4323
:1032D0004FF6FF552A400D894FF6FF7606EA052581
:1032E0002A434D8806EA05252A431F4DA84202D0ED
:1032F000234DA8421DD14FF2FF752A404D894FF64C
:10330000FF7606EA05252A434FF6FF352A408D88C9
:1033100006EA05252A434EF6FF752B404DF6FF754C
:103320002B408D8906EA05152B43CD8906EA051544
:103330002B4383808483CD888587028470BD70B5DC
:10334000002200230024058C4EF6FF7635400584CC
:10335000038C8488828B48F6FF752A404FF6FF4520
:103360002A400D8820E00000002C014000040040AD
:1033700000080040000C0040001000400014004015
:1033800000340140004C0140005001400054014015
:1033900000180040001C0040002000400040014098
:1033A00000440140004801404FF6FF7606EA05253B
:1033B0002A434DF6FF752B400D8906EA05352B4350
:1033C0004D8806EA05352B43FA4DA84202D0FA4D46
:1033D000A84208D14BF6FF752C408D894FF6FF7639
:1033E00006EA85152C4384808283CD88A0F840505E
:1033F000038470BD828B4FF2FF331A408283828B2D
:103400004FF6FF7303EA01231A4382837047F0B536
:103410000C461546002200210026078C4EF6FF7C44
:1034200007EA0C070784828B018C4FF6FF7707EAC7
:10343000043640F6FF473A404FF6FF7707EA052784
:103440003A434FF6FF7707EA03373A43D94FB8427A
:103450000ED0D94FB8420BD0B0F1804F08D0D74F23
:10346000B84205D0D64FB84202D0D64FB84206D1A6
:103470004DF6FF77394046F48057394305E047F66B
:10348000FF57394044F48057394382830184F0BDAB
:10349000828B4FF6F3731A408283828B0A438283B6
:1034A0007047F0B50C461546002200210026078C17
:1034B0004FF6FF6C07EA0C070784828B018C4FF6EE
:1034C000FF7707EA04264FF60C773A404FF6FF776E
:1034D00007EA03172F433A43B64FB8420ED0B64F10
:1034E000B8420BD0B0F1804F08D0B44FB84205D0ED
:1034F000B34FB84202D0B34FB84206D14FF6FF5790
:10350000394046F48077394305E04FF2FF573940A0
:1035100044F48077394382830184F0BD028B4FF2FB
:10352000FF331A400283028B4FF6FF7303EA012335
:103530001A4302837047F0B50C461546002200215D
:103540000026078C4FF6EF7C07EA0C070784028BF6
:10355000018C4FF6FF7707EA041640F6FF473A4022
:103560004FF6FF7707EA03373A434FF6FF7707EA4C
:1035700005273A438F4FB8420ED08F4FB8420BD039
:10358000B0F1804F08D08D4FB84205D08C4FB84273
:1035900002D08C4FB84206D14FF6DF77394046F063
:1035A0001007394305E04FF65F77394044F01007C4
:1035B000394302830184F0BD028B4FF6F3731A4046
:1035C0000283028B0A4302837047F0B50C4615460E
:1035D00000220021068C4FF6FE773E400684028BC7
:1035E000018C4FF60C7632407E1C06EA03162E4301
:1035F0003243704EB0420ED06F4EB0420BD0B0F19D
:10360000804F08D06D4EB04205D06D4EB04202D012
:103610006C4EB04206D14FF6FD76314044F00106C3
:10362000314305E04FF6F576314044F00106314371
:1036300002830184F0BD70B505460C465D488542A5
:103640000ED05D4885420BD0B5F1804F08D05B4865
:10365000854205D05A48854202D05A48854200D159
:1036600000E000BF208850B92389A28861882846DD
:10367000FFF7ABFFE1882846FFF79EFF25E0208893
:1036800004280AD12389A28861882846FFF753FFBE
:10369000E1882846FFF742FF17E0208808280AD172
:1036A0002389A28861882846FFF7FBFEE188284627
:1036B000FFF7EEFE09E02389A28861882846FFF71C
:1036C000A6FEE1882846FFF795FE70BD2DE9F04182
:1036D00005460C4600260127608808B9022600E04E
:1036E0000026A088012801D1022700E001272088B8
:1036F000A0B92389A28861882846FFF766FFE18880
:103700002846FFF759FF23893A4631462846FFF7F6
:1037100012FFE1882846FFF701FF13E02389A28802
:1037200061882846FFF707FFE1882846FFF7F6FE85
:1037300023893A4631462846FFF747FFE188284665
:10374000FFF73AFFBDE8F0810A884B881A438B885F
:103750001A43CB881A430B891A434B891A438B8926
:103760001A43A0F8442070474FF6FF718180002172
:103770000180C18041800172704700210180418039
:103780008180C180018141818181C1817047002197
:1037900001804180012181800021C1800181704729
:1037A0000021018041808180C1800181418181812E
:1037B00070470000002C014000340140000400402C
:1037C00000080040000C004021B1028842F00102D4
:1037D000028004E002884FF6FE731A4002807047B0
:1037E00031B1B0F8442042F40042A0F8442005E092
:1037F000B0F84420C2F30E02A0F8442070471AB17A
:1038000083890B43838102E083898B4383817047E3
:103810008182704741EA0203A0F8483070471AB12C
:1038200083890B43838102E083898B4383817047C3
:1038300001894FF6F8721140018170470A46002154
:1038400001894FF68F73194011430181704730B5DC
:1038500004460D4629462046FFF7F0FF208940F038
:103860000700208130BD2DE9F04104460D46164683
:103870001F46602D06D13B46012231462046FFF708
:103880005AFE05E03B46012231462046FFF79DFEE9
:1038900029462046FFF7D2FF208940F0070020810B
:1038A000BDE8F08130B50C4600210189C9B24FF660
:1038B000FF7505EA0325154325432943018130BDE2
:1038C0002DE9F04105460E4617469846002443462A
:1038D0003A4631462846FFF7E5FF2C894FF6F87047
:1038E000044044F007044FF68F70044044F0700425
:1038F0002C81BDE8F081F0B504460D4616461F4602
:103900003B46324629462046FFF7CCFF208940F44B
:1039100080402081F0BD0185828270470A460021E7
:1039200001884FF68F731940114301807047F0B53D
:103930000C4615461E460021002200230189028BF9
:10394000038C4FF6F877394021434FF6FC473A4055
:1039500040F201173A434FF6DD773B404FF6FF77D1
:1039600007EA06172F433B43018102830384F0BD1E
:103970000A460021018B4FF68F73194011430183D2
:1039800070470A460021018B48F6FF7319404FF635
:10399000FF7303EA02231943018370470A4600219B
:1039A000818B4FF68F7319401143818370470A460C
:1039B0000021818B48F6FF7319404FF6FF7303EA2D
:1039C000022319438183704721B1028842F08002AB
:1039D000028004E002884FF67F731A40028070472D
:1039E00021B1828842F00402828004E082884FF68E
:1039F000FB731A408280704721B1828842F008022E
:103A0000828004E082884FF6F7731A408280704704
:103A100021B1828842F00102828004E082884FF660
:103A2000FE731A40828070470A460021018B4FF6D0
:103A3000F77319401143018370470A460021018B37
:103A40004FF2FF7319404FF6FF7303EA0223194345
:103A5000018370470A460021818B4FF6F7731940A6
:103A60001143818370470A460021818B4FF2FF7317
:103A700019404FF6FF7303EA02231943818370470D
:103A80000A460021018B4FF6FB7319401143018355
:103A900070470A460021018B4FF6FF3319404FF65D
:103AA000FF7303EA02231943018370470A4600218A
:103AB000818B4FF6FB7319401143818370470A468F
:103AC0000021818B4FF6FF3319404FF6FF7303EA55
:103AD00002231943818370470A460021018B4FF668
:103AE0007F7319401143018370470A460021018BFF
:103AF000C1F30E014FF6FF7303EA0223194301835A
:103B000070470A460021818B4FF67F73194011439D
:103B1000818370470A460021818BC1F30E014FF665
:103B2000FF7303EA02231943818370470A46002189
:103B3000018C4FF6FD7319401143018470470A460A
:103B40000021018C4FF6F77319401143018470472F
:103B50000A460021018C4FF6DF7319404FF6FF73C0
:103B600003EA02131943018470470A460021018CBD
:103B70004FF67F7319404FF6FF7303EA02131943A0
:103B8000018470470A460021018C4FF6FF5319400B
:103B90004FF6FF7303EA02231943018470470A4674
:103BA0000021018C4FF2FF7319404FF6FF7303EAB7
:103BB00002231943018470470A460021018C4DF607
:103BC000FF7319404FF6FF7303EA02331943018470
:103BD000704730B5002301248C40A3B2048C9C4371
:103BE0000484048C02FA01F5ADB22C43048430BD88
:103BF00030B5002304248C40A3B2048C9C4304847D
:103C0000048C02FA01F5ADB22C43048430BD70B5CA
:103C10000346002000241846183001258D40ACB220
:103C20001D8CA5431D8409B1082909D100EB610051
:103C3000056825F0700505600568154305600EE010
:103C40000D1FC5F34E052844056825F4E0450560C1
:103C500005684FF6FF7606EA02263543056070BD1B
:103C600021B1028842F00202028004E002884FF68D
:103C7000FD731A400280704721B1028842F00402AD
:103C8000028004E002884FF6FB731A4002807047FE
:103C900021B1828842F08002828004E082884FF65F
:103CA0007F731A408280704702884FF6F7731A407C
:103CB000028002880A430280704782884FF68F7321
:103CC0001A40828082880A438280704702894FF6B8
:103CD000F8731A40028102890A43028170470289FF
:103CE0004FF67F731A40028102890A4302817047AE
:103CF000818470478185704781867047018770474E
:103D000081877047A0F84010704702884FF6FF4344
:103D10001A40028002880A43028070470146888E5A
:103D200070470146088F70470146888F70470146EB
:103D3000B1F8400070470146888C70470146088DF5
:103D4000704702460020138A0B400BB1012000E0AF
:103D500000207047CA430282704730B502460020F7
:103D600000230024158A05EA0103958905EA010468
:103D700013B10CB1012000E0002030BDCA43028223
:103D8000704700000CB50020019000906C4800685E
:103D900040F480306A49086000BF6948006800F458
:103DA000003000900198401C0190009818B90198CB
:103DB000B0F5A06FF1D16248006800F4003010B196
:103DC0000120009001E0002000900098012843D1DC
:103DD0005C48006840F010005A49086008460068D6
:103DE00020F0030008600846006840F00200086008
:103DF0005348406852494860084640684860084651
:103E0000406840F4806048600846406820F47C10B8
:103E100048600846406840F4E8104860084600687A
:103E200040F08070086000BF4548006800F00070F6
:103E30000028F9D04248406820F00300404948601B
:103E40000846406840F00200486000BF3C484068B7
:103E500000F00C000828F9D10CBD10B5FFF792FF57
:103E600010BD10B53648006840F0010034490860C4
:103E700008464068344908403149486008460068AF
:103E8000324908402E4908600846006820F4802026
:103E900008600846406820F4FE0048604FF41F00A8
:103EA0008860FFF7DAFF4FF000602949086010BD15
:103EB00010B5002100200022214B5B6803F00C01AB
:103EC00021B1042906D0082928D107E0214B224C32
:103ED000236027E01F4B204C236023E0184B5B68D6
:103EE00003F47010164B5B6803F48032022303EB7B
:103EF000904022B9194B4343174C23600DE0104BFF
:103F00005B6803F4003323B1144B4343124C23602A
:103F100003E0104B4343104C236003E00D4B0E4C69
:103F2000236000BF00BF064B5B68C3F303130C4C58
:103F3000E15C094B1B68CB40074C236010BD0000BF
:103F400000100240002002400000FFF8FFFFF6FED4
:103F500008ED00E000127A00EC00002000093D00AE
:103F6000F0000020012080F3138800BF00BFFE484E
:103F7000006800F4E060FD490843001DFA4908604C
:103F8000BFF34F8F00BF00BFFEE70020F849486035
:103F90008860C8600861F748086000208862C862CD
:103FA00070470020F44948608860C8600861F148A3
:103FB000086000208862C8627047704770B5044688
:103FC0000D46002C06DDA0B200F0EBFCA0B200F024
:103FD00033FD11E0002C0FDA261E01DB314600E034
:103FE000714288B200F0ECFC261E01DB314600E095
:103FF000714288B200F011FD002D06DDA8B200F07C
:10400000B2FCA8B200F0FAFC11E0002D0FDA2E1E6F
:1040100001DB314600E0714288B200F0B3FC2E1E95
:1040200001DB314600E0714288B200F0D8FC70BD7F
:104030002DE9F04F85B0D148049000200390029004
:1040400001900090CE480068401DCD4908600846A8
:10405000006801F08AF80446C84900F0B7FE0190F4
:10406000019801F0E4F80646C64AC74B00F093FFFA
:10407000044601F01FF90090C449C548006800F0EB
:10408000A5FE824601F0D3F8804602F02BFC0646DE
:104090004FF04042BF4B00F07EFF044601F00AF9AA
:1040A0000290009801F0C3F8804602F065FF0446D4
:1040B0000D46029801F0BBF8064622462B4600F05A
:1040C0006AFF824601F0F6F80390002000F0E2FC5F
:1040D000B14800F0E5FCB14800F0E8FCB04800F061
:1040E000EBFC039800F0D9FCAB4800F0DCFCAB48DB
:1040F00000F0DFFCAA4800F0E2FC9D49486800F0AF
:10410000E1FC9B49C8629C49486800F04BFD9A4914
:10411000C8629748C06AB0F5166F03DD4FF41660A9
:104120009349C8629248C06A10F5166F02DA9D483A
:104130008F49C8629048C06AB0F5166F03DD4FF42E
:1041400016608D49C8628C48C06A10F5166F02DA95
:1041500094488949C862884AD16A854AD06AFFF77B
:104160002DFF05B0BDE8F08F2DE9F04F85B08348F5
:104170000490002003900290019000908A4800680B
:10418000401D894908600846006800F0EEFF0446BB
:104190007A4900F01BFE0190019801F048F80646AC
:1041A000784A794B00F0F7FE044601F083F800905E
:1041B00076497748006800F009FE824601F037F83A
:1041C000804602F08FFB06464FF04042714B00F0F4
:1041D000E2FE044601F06EF80290009801F027F824
:1041E000804602F0C9FE04460D46029801F01FF811
:1041F000064622462B4600F0CEFE824601F05AF8D3
:104200000390039800F046FC634800F049FC6348C3
:1042100000F04CFC624800F04FFC002000F03DFC38
:104220005D4800F040FC5D4800F043FC5C4800F055
:1042300046FC4F49486800F045FC4D49C8624E496C
:10424000486800F0AFFC4C49C8624948C06AB0F504
:10425000166F03DD4FF416604549C8624448C06AD2
:1042600010F5166F02DA4F484149C8624248C06AE9
:10427000B0F5166F03DD4FF416603F49C8623E4843
:10428000C06A10F5166F02DA46483B49C8623A4ADE
:10429000D16A374AD06AFFF791FE05B0BDE8F08FCA
:1042A0002DE9F04F9FB035481D904C223F490AA898
:1042B00000F0F0FC0020099008900790069005900F
:1042C0000490039002903A493A48006800F07EFD5D
:1042D000044600F079FF049037480068401D3649D5
:1042E00008600846006800F040FF0446234900F0DB
:1042F0006DFD0390039800F09AFF0646214A224B79
:1043000000F049FE044600F0D5FF02901F49204806
:10431000006800F05BFD824600F089FF804602F0F5
:10432000E1FA06464FF040421A4B00F034FE0446D4
:1043300000F0C0FF05901F48006800F078FF1F4A9A
:104340001F4BCDE9000100F026FE064602F008FDF5
:1043500004460D46059800F06AFF804622462B462B
:1043600000F019FE82462DE00CED00E00000FA0599
:1043700068030020CDCCCC3DA80300200040B04411
:104380000C0100206E861BF0F92119400000B0429C
:1043900000010020DCA54C4000007042713D4A3F06
:1043A00000004844A0F6FFFF10010020CC71000877
:1043B000000020410401002014010020514CDE00C7
:1043C00033DF913F00F076FF0790EB48006800F084
:1043D0002EFF0646E94AEA4B00F0DDFD804602F07A
:1043E000CBFD04460D46059800F021FF22462B46E2
:1043F000CDE9000100F0CFFD824600F05BFF0690A2
:10440000029800F014FF804602F0B6FD82468B460B
:10441000079800F00CFF064652465B4600F0BBFDD5
:10442000044600F047FF09900AAA049852F82010A9
:10443000029800F041FC019000F0F9FE064602F0FF
:104440009BFD04460D46069800F0F1FE804622468C
:104450002B4600F0A0FD824600F02CFF0890099842
:1044600000F018FBC74800F01BFBC74800F01EFB1C
:10447000C64800F021FB089800F00FFBC14800F08F
:1044800012FBC14800F015FBC04800F018FBC04902
:10449000486800F017FBBE49C862BE49486800F092
:1044A00081FBBC49C862BA48C06AB0F5166F03DD2B
:1044B0004FF41660B649C862B548C06A10F5166F69
:1044C00002DAB548B249C862B248C06AB0F5166FA0
:1044D00003DD4FF41660AF49C862AE48C06A10F5FC
:1044E000166F02DAAC48AB49C862AA4AD16AA84A38
:1044F000D06AFFF763FD1FB0BDE8F08F2DE9F041F2
:10450000A349486800F047FE071E01DB394600E07A
:104510007942084600F02EFE054600229F4B00F02F
:1045200099FE58D29B49486800F035FE041E01DB15
:10453000214600E06142084600F01CFE05460022CC
:10454000964B00F087FE46D2002000F0A3FA944874
:1045500000F0A6FA002000F0A9FA924800F0ACFAA8
:10456000002000F09AFA8E4800F09DFA002000F03A
:10457000A0FA8C4800F0A3FA8549486800F0A2FA36
:104580008349C8628349486800F00CFB8149C862CE
:104590007F48C06AB0F5166F03DD4FF416607C49A2
:1045A000C8627B48C06A10F5166F02DA7A4878490B
:1045B000C8627848C06AB0F5166F03DD4FF4166024
:1045C0007449C8627348C06A10F5166F08DA7248F9
:1045D0007049C86204E000206D49C8626D49C86234
:1045E0006C4AD16A6A4AD06AFFF7E8FCBDE8F081FC
:1045F0002DE9F04F89B06C48089000200790069094
:10460000059004900390029068480068401D674937
:1046100008600846006800F0A8FD0446624900F002
:10462000D5FB0390039800F002FE0646604A614BFA
:1046300000F0B1FC044600F03DFE02905E495F4888
:10464000006800F0C3FB824600F0F1FD804602F0F6
:1046500049F906464FF04042594B00F09CFC044695
:1046600000F028FE05905748007810B9564804908D
:1046700005E054480078012801D15448049002987C
:1046800000F0D5FD824602F077FC80468946059809
:1046900000F0CDFD064642464B4600F07CFC044649
:1046A00000F008FE07900499029800F005FB0190C5
:1046B00000F0BDFD804602F05FFC04460D46059803
:1046C00000F0B5FD064622462B4600F064FC82460B
:1046D00000F0F0FD0690079800F0DCF9294800F0A2
:1046E000DFF9294800F0E2F9284800F0E5F90698DA
:1046F00000F0D3F9234800F0D6F9234800F0D9F9A7
:10470000224800F0DCF92249486800F0DBF9204932
:10471000C8622049486800F045FA1E49C8621C4832
:10472000C06AB0F5166F03DD4FF416601849C86211
:104730001748C06A10F5166F02DA17481449C862A4
:104740001448C06AB0F5166F03DD4FF416601149C6
:10475000C8621048C06A10F5166F02DA0E480D499B
:10476000C8620C4AD16A0A4AD06AFFF727FC09B02E
:10477000BDE8F08F7047000004010020514CDE00BE
:1047800033DF913F00007042713D4A3F00004844D2
:1047900068030020A8030020A0F6FFFF0080464029
:1047A0000000AA420000FA440040B0441801002072
:1047B0006E861BF0F92119400000B0420001002074
:1047C000DCA54C4008010020D80FC93FE2CB964041
:1047D00008B501210846FEF76CF901210420FEF717
:1047E0005BF90F20ADF8000018208DF803000320BE
:1047F0008DF8020069469848FDF792FE08BD00B5A5
:1048000087B001210846FEF754F90020ADF81000EA
:10481000ADF8120040F6B830ADF814000020ADF845
:10482000160004A94FF08040FEF772FC7020ADF82E
:1048300000000120ADF802000220ADF808000020C1
:10484000ADF8060069464FF08040FEF79EFC7020F0
:10485000ADF800000120ADF802000220ADF808001C
:104860000020ADF8060069464FF08040FEF7CFFC0F
:104870007020ADF800000120ADF802000220ADF874
:1048800008000020ADF8060069464FF08040FEF7B2
:104890000BFD7020ADF800000120ADF802000220F1
:1048A000ADF808000020ADF8060069464FF08040E2
:1048B000FEF745FD0821C806FFF7B6F80821C8062F
:1048C000FFF7BBF80821C806FFF7C4F80821C8069F
:1048D000FFF7C9F800214FF08040FFF70DFA0021E3
:1048E0004FF08040FFF70AFA00214FF08040FFF7B9
:1048F00007FA00214FF08040FFF704FA01218807F2
:10490000FEF762FF07B000BD08B501212020FEF7C9
:10491000C3F84FF47F40ADF8000010208DF803007D
:1049200003208DF8020069464C48FDF7F9FD4FF46D
:1049300080404A491031086040000860401108601A
:104940008010086000010860400008608010086066
:104950008010086008BD10B5FFF73AFFFFF74FFF62
:10496000FFF7D2FF10BD10B504464FF480403B491D
:10497000143108608010091F086021468004FFF789
:10498000BDF910BD10B504464FF4804033491031D5
:1049900008608010091D086021468004FFF7AEF909
:1049A00010BD10B504464FF400402C491431086086
:1049B0008010091F086021464004FFF7A1F910BDCF
:1049C00010B504464FF400402449103108608010AF
:1049D000091D086021464004FFF792F910BD10B58B
:1049E00004464FF480601D49103108604000091DE5
:1049F00008602146C004FFF785F910BD10B50446D4
:104A00004FF480601549143108604000091F0860A8
:104A10002146C004FFF776F910BD10B504464FF4E7
:104A200080700E49103108604000091D0860214661
:104A30004005FFF761F910BD10B504464FF48070D2
:104A40000649143108604000091F086021464005EE
:104A5000FFF752F910BD00000008014000140140AA
:104A600000208849C861086208614861886108605F
:104A70000021844A9160D160704700208249C8615A
:104A80000862086148618861086000217E4A91607F
:104A9000D16070477B49086070477B490860704768
:104AA00078490861704778490861704775494861DD
:104AB000704775494861704772498861704772490B
:104AC000886170472DE9F04F89B083466D480168D1
:104AD000584600F046F98246504600F0A8FB0446CE
:104AE0006848D0E902633246204600F0ADF9654AD5
:104AF000C2E9020110460022644BD0E9024120467F
:104B000000F0C0FB05D2002160485E4AC2E90210F5
:104B10000DE05C49D1E9024100225D4B204600F0E6
:104B200099FB04D200215A48564AC2E9021055485E
:104B3000C169504600F012F908905248C0F81CA014
:104B400001468869089900F00FF9064600F06FFBEE
:104B5000CDE906014B49486900F069FBCDE9000148
:104B60004848D0E902633246009800F014FACDE9D3
:104B7000040144490869514600F0F6F8064600F081
:104B800056FBCDE90201DDE9042300F05DF904469E
:104B9000DDE9062300F058F9804600F029FB09B052
:104BA000BDE8F08F2DE9F04F89B0834636480168A3
:104BB000584600F0D6F88246504600F038FB0446CE
:104BC0003148D0E902633246204600F03DF92E4AD2
:104BD000C2E90201104600222C4BD0E902412046D6
:104BE00000F050FB05D200212848274AC2E90210F4
:104BF0000DE02549D1E902410022254B204600F075
:104C000029FB04D2002122481F4AC2E902101E4893
:104C1000C169504600F0A2F808901B48C0F81CA0DB
:104C200001468869089900F09FF8064600F0FFFAEF
:104C3000CDE906011449486900F0F9FACDE900010F
:104C40001148D0E902633246009800F0A4F9CDE99A
:104C500004010D490869514600F086F8064600F047
:104C6000E6FACDE90201DDE9042300F0EDF804469F
:104C7000DDE9062300F0E8F8804600F0B9FA09B053
:104C8000BDE8F08FE80300201004002000F8A140E8
:104C900000F8A1C040EA01039B0703D009E008C95E
:104CA000121F08C0042AFAD203E011F8013B00F8F1
:104CB000013B521EF9D27047F0B480EA0102D40FD2
:104CC0004200B2EB410F02D20246084611464A00AA
:104CD00042D0C30DDDB2C1F3C752AD1A202D35DA73
:104CE000C1F3160141F4000204B15242C5F120069D
:104CF00002FA06F12A411044B3EBD05F23D0C4B1CD
:104D0000012DA0EBC35009DCF0BC4FF0004202EAD9
:104D1000C352DBB200F5000000F07DBB400000F1A3
:104D2000807000EBC350A0F1807040EAD170490060
:104D300009E0490841EAC071A0EBC35000F500004A
:104D4000400800EBC350F0BC00F05CBB61420122A4
:104D500002EB4101001BF6E7F0BC704781F0004117
:104D6000AAE780F00040A7E780EA010210B502F050
:104D70000043400022D04A001FD0010E01EB126117
:104D8000C0F35600C2F3560240F4000042F40002A1
:104D9000A0FB022000047F39140400D0401C50EA1C
:104DA000124001D44000491EC2B20C0604EBD010E0
:104DB000401C4008802A02D003E0002010BD20F0F3
:104DC0000100002900DA0020184310BD30B480EA49
:104DD000010202F0004530F0004221F0004013D003
:104DE00090B1C30DD40DC2F31601C0F31600E41A3E
:104DF00041F4000140F400027D34914201D3641C6F
:104E000000E04900002C02DA30BC002070474FF46B
:104E100000000023914201D3891A034340084FEA5E
:104E20004101F7D151B1914202D14FF0004105E06B
:104E300002D24FF0010101E06FF0010103EBC45019
:104E4000284430BC00F0DEBA2DE9FE4F804681EAEE
:104E50000300C00F0C46009021F0004123F00045F4
:104E6000B8EB0200A94105D24046214690461C46B7
:104E70000B46024623F00040104347D0270DC7F3EE
:104E80000A00C3F30A510290401A019040286BDADD
:104E9000C3F3130040F4801B0098924620B1002316
:104EA000D2EB030A63EB0B0B01985946C0F14002A9
:104EB000504600F076FA06460D4650465946019A8D
:104EC00000F08EFA10EB08006141002487EA1152CD
:104ED00084EAE7731A4340D0009A62B3019A012A28
:104EE0004FEA075215DC001B61EB02014FF0004254
:104EF00002EA0752CDE90042001C41F5801132461A
:104F00002B4600F01EFB03B0BDE8F08F4046214663
:104F1000F9E7001B61EB0201001C41F5801300184A
:104F20005B412018A2F5001747EB030140EAD5705A
:104F3000B6196D4111E06D084FEA360645EAC075B5
:104F40004FEA0752001B61EB0201001C41F5801182
:104F500049084FEA30000019514132462B4603B050
:104F6000BDE8F04F00F0DEBA0098012240000023B7
:104F7000D0EB020263EBE073009821464FEAE07445
:104F8000B8EB000061EB0401E9E783F000435BE765
:104F900081F0004158E72DE9FE4F81EA030404F057
:104FA000004421F0004100944FF0000B23F0004337
:104FB00050EA01045ED052EA03045BD0C3F30A5402
:104FC000C1F30A552C44A4F2F3340194A0FB02541B
:104FD000C1F3130141F48011C3F3130343F48013AD
:104FE00001FB024400FB034E840A970A44EA815401
:104FF00047EA8357A4FB076802958D0A05FB0785DE
:105000004FEA932C04FB0C542705029D4FEA0658E7
:1050100047EA1637B5EB08056EEB070C870E920EC4
:1050200047EA811742EA8312A7FB0201B6EB0B01A4
:1050300064EB00042B0D43EA0C335E1844EB1C5068
:10504000DA465146E7FB0201C5F313044FEA0B337E
:1050500043EA14534FEA0432019C43EA0603A4F1E5
:105060000C040294009CCDE900B400F06AFA03B08D
:10507000BDE8F08F00200146F9E72DE9F04D81EA07
:10508000030404F0004B21F0004514464FF0000AE1
:1050900023F0004150EA050220D054EA01021DD05D
:1050A000C5F30A570246C5F31303C1F31300C1F356
:1050B0000A5640F4801543F48013A7EB0608101B32
:1050C000D64608F2FD3873EB050002D308F101085B
:1050D00001E092185B41B8F1000F03DA00200146AD
:1050E000BDE8F08D00204FF48011064684460EE0A6
:1050F000171B73EB050705D3121B63EB0503064370
:105100004CEA010C49084FEA300092185B4150EA22
:105110000107EDD152EA030012D082EA040083EACB
:105120000501084305D0101BAB4106D20122002324
:1051300006E000224FF0004302E06FF0010253103E
:105140001AEB06004CEB085110EB0A0041EB0B0187
:10515000BDE8F04D00F0E6B9C10F80EAE070084408
:10516000CA079623002100F056B996230022114663
:1051700000F051B90EB5C10F80EAE0700844CA07CB
:10518000002140F233438DE80E000A460B4600F042
:10519000D8F903B000BD00F0004220F00040C10D7E
:1051A000C0F3160040F400007F2901DA00207047A8
:1051B000962903DCC1F19601C84001E09639884088
:1051C000002AF4D04042704720F00040C10DC0F3E7
:1051D000160040F400007F2901DA0020704796296C
:1051E00003DCC1F19601C84070479639884070478A
:1051F00070B5C1F30A5201F000450024C1F3130158
:1052000040F2FF3341F480119A4201DA002070BD70
:1052100040F233439A42A2F2334203DC524200F09E
:10522000CFF800E090402C43F1D0404270BD00F038
:10523000004230F000400AD0C10D01F56071C0F3AA
:10524000160042EA0151C20840071143704700208E
:105250000146704730B5041E71F1000404DB4FF0C5
:105260000044404264EB0101141E73F1000405DBAD
:105270001C464FF00043524263EB04038B4208BFCD
:10528000824230BD30B5041E71F1000404DB4FF0E2
:105290000044404264EB0101141E73F1000405DB7D
:1052A0001C464FF00043524263EB0403994208BF8F
:1052B000904230BD01F0004330B421F0004150EA8B
:1052C000010206D00A0DA2F56072C1F31301002A93
:1052D00002DC30BC00207047440F44EAC104C10026
:1052E000E01830BC00EBC25000F08CB8002801DBA5
:1052F000C0F10040002901DBC1F10041814270474B
:10530000002801DBC0F10040002901DBC1F10041B0
:105310008842704730B50B46014600202022012408
:1053200009E021FA02F59D4205D303FA02F5491B73
:1053300004FA02F52844151EA2F10102F1DC30BD89
:105340002DE9F05F0546002092469B4688460646BA
:10535000814640241BE0284641464746224600F04D
:105360002FF853465A46C01A914110D31146184699
:10537000224600F016F82D1A67EB01084F46224628
:105380000120002100F00DF817EB00094E41201E0E
:10539000A4F10104DFDC484631462A464346BDE815
:1053A000F09F202A04DB203A00FA02F10020704727
:1053B0009140C2F1200320FA03F319439040704753
:1053C000202A04DB203A21FA02F00021704721FA5A
:1053D00002F3D040C2F120029140084319467047C1
:1053E000202A06DBCB17203A41FA02F043EAE073A9
:1053F00006E041FA02F3D040C2F120029140084396
:10540000194670470029A8BF7047401C490008BFD3
:1054100020F00100704710B4B0FA80FC00FA0CF0E4
:1054200050EA010404BF10BC704749B1CCF120041C
:1054300021FA04F411FA0CF118BF012121430843A9
:10544000A3EB0C01CB1D4FEA00614FEA102042BFD5
:10545000002010BC704700EBC35010440029A4BFCB
:1054600010BC7047401C490008BF20F0010010BC70
:105470007047420005D0C0F3C7525242914201DC4E
:105480000020704700EBC1507047F0B4002802DCE8
:10549000F0BC00207047C0F3C751C0F3160040F4C1
:1054A0000000CA0701D14000491E3F2202EB6105FE
:1054B000002211464FF4000626FA01F31344D418D3
:1054C000844201D8001B1A464000491C1729F3DD0D
:1054D0005100814202D24FF0FF3100E0002102EB87
:1054E000C550F0BCFFF78EBF10B541000CD0C0F323
:1054F000C751962908DC7E2909DC06DB410204D06D
:1055000000F0004040F07E5010BD002010BDC1F101
:105510009604C4F1200100FA01F1E040FFF772FFA8
:10552000A04010BD10B5141E73F1000408DA401C31
:1055300041F1000192185B411A4301D120F00100B2
:1055400010BD2DE9F04D92469B4611B1B1FA81F2A2
:1055500002E0B0FA80F220329046FFF722FF0446C4
:105560000F4640EA0A0041EA0B0153465A460843F7
:1055700013D0114653EA010019D0C8F14002504639
:10558000FFF71EFF05460E46504659464246FFF7B6
:1055900008FF084305D0012004E020463946BDE855
:1055A000F08D0020054346EAE0762C4337430A9805
:1055B0006305E40AA0EB08000022FD0A44EA475410
:1055C0000A3002D500200146E9E7010510196941BA
:1055D000DDE9084500196941BDE8F04DA2E770B565
:1055E00021F0004303430CD0C1F30A550024D5EB4E
:1055F000040564EB0403D617AD1AB34102DB0020A7
:10560000014670BD201841EB025170BDC1F30A5232
:10561000C1F3130140F2FF3341F480119A4202DAE0
:1056200000200146704740F233439A42A2F23342CF
:1056300002DC5242FFF7C4BEFFF7B3BE064C074D73
:1056400006E0E06840F0010394E807009847103452
:10565000AC42F6D3FAF770FD447400086474000895
:105660000EB540F2334102910021CDE900110A4606
:105670000B46FFF766FF03B000BD00000FB4054BFB
:1056800010B503A9044A029800F0FEFC10BC5DF8B6
:1056900014FB00001D0300081C0100200FB4084B80
:1056A00010B504A902AA039800F0EEFC044602A972
:1056B000002001F080F8204610BC5DF814FB0000CB
:1056C000B7670008490050EAC12018BF04204A0DFE
:1056D00018BF40F0010040F2FF72B2EB515F08BF0B
:1056E00040F00200012808BF052070474100080271
:1056F00018BF04200A0E18BF40F001004FF07F428F
:1057000032EA010108BF40F00200012808BF05206D
:10571000704700002DE9F74F144694B00021C4E90A
:1057200002111599079121F00045C9498D4206DC07
:105730001599C4E9000117B00020BDE8F08FC549F4
:10574000DFF814A3A9423CDD0799C44E0029C44FD9
:10575000C44A1599534619DDFFF717FC554506D085
:10576000C14AC24BFFF711FCC4E900010AE04FF047
:10577000D352BE4BFFF709FC32463B46FFF705FC10
:10578000C4E9000117B00120BDE8F08FFFF75CFB12
:10579000554506D0B44AB54BFFF756FBC4E90001A6
:1057A0000AE04FF0D352B14BFFF74EFB32463B4677
:1057B000FFF74AFBC4E9000117B04FF0FF30BDE826
:1057C000F08FAB49A942159978DB21F0004183465F
:1057D0008846A84AA84BFFF7DEFB0022A74BFFF73D
:1057E00033FBFFF705FD0990FFF7C4FC06460F46A3
:1057F0009C4A5346FFF7CFFB43465A46FFF7C8FB88
:1058000080468A46984A994B30463946FFF7C3FB93
:105810002A0D01250B9242465346FFF7B9FB032D93
:10582000C4E9000139D00B98C1F30A51401A05EBC5
:1058300045111139814230DA9148C346784400EB72
:105840000510CDF80CA00C90D0E900233046394665
:10585000FFF7A1FB02460B460491069058460399B8
:10586000FFF793FB80468A4602460B46584603994B
:10587000FFF78BFB049B069AFFF787FB83460C9888
:1058800003913946D0E902233046FFF784FB5A469C
:10589000039BFFF77AFB6D1CBDE707980028A2BFAA
:1058A000099817B0BDE8F08F616881F00041616030
:1058B000099817B04042BDE8F08FFFE7844615987D
:1058C000C1F31301C0F30A50A0F2F5304FEA60189B
:1058D00000F01F06C6F120001390002006900790EC
:1058E00041F4801E05206D4676B1664A08EB000142
:1058F0007A4452F8213002EB8101B3404A6813998F
:1059000022FA01F1194305E05F4908EB00027944EE
:1059100051F82210A1FB0E27A1FB0C131A449A4246
:1059200034BF0123002303EB070A05EB8003D3E90F
:1059300001B70F448F4234BF0121002193448B44AF
:1059400011B1934502D903E0934501D2012100E052
:105950000021C3E901B7514445F82010011EA0F110
:105960000100C1DC0298059F00F10050800F1290E9
:105970000298DDE903568000FFF7FCFB83462846CA
:105980000D91FFF76DFE6FF01D02FFF728FECDE9C8
:105990000E013046FFF764FE6FF03D02FFF71FFE79
:1059A00080468A463846FFF75BFE6FF05D02FFF7E0
:1059B00016FE0746424653461191FFF745FADDE9C8
:1059C0000E23FFF741FA5A460D9BFFF73DFA0025DB
:1059D0000E465A4628460D9BFFF7D7FADDE90E23FF
:1059E000FFF7D3FA42465346FFF7CFFA3A46119BE8
:1059F000FFF7CEFADFF898A0244A5346FFF7CBFA18
:105A000007468846234A244B31462846FFF7C3FA07
:105A10003A464346FFF718FA074688464FF0A84231
:105A2000534631462846FFF7B6FA3A464346FFF753
:105A30000BFA159A12F0004F04D0129A81F000412F
:105A400052421292C4E90001129817B0BDE8F08FDB
:105A5000FB21E93F7CD90240FB21F93F7370032E03
:105A60008A19A33B000040543163621A61B4D03DEF
:105A7000FB21394183C8C96D305FE43F0000E03F3E
:105A8000A01A00001C1A0000FE190000182D445432
:105A9000FB21F93D3326A611460B113C2DE9FF4DA4
:105AA00021F0004807460C46B8F1795F08DAFFF7A5
:105AB0009FFB002801BF0020324904B0BDE8F08DF3
:105AC0003A46234610461946FFF765FA0546024650
:105AD0002D480E460B460621784400F05DF82A4614
